:0300000002094FA3
:0C094F00787FE4F6D8FD75812802099637
:0B0C1D000000000000000000DFF622D5
:100BBE00C2AFC2B27F32120C1DD2B27F06120C1D12
:0B0BCE00A2B2920230B2FDD2AFA20230
:010BD90022F9
:020B7700AE07C7
:100B7900C2AF7D01ED601AC2B200005E7004C2B25C
:100B89008002D2B27F06120C1DD2B2ED25E0FD80A3
:030B9900E3D2AFF5
:010B9C002236
:100B2500C2AF7D01ED601EC2B20000D2B20000204E
:100B3500B205F452068003ED42067F06120C1DED48
:090B450025E0FD80DFD2AFAF0610
:010B4E002284
:100BF600120BBE920120010A7FCC120B777F4412A2
:050C06000B77A201B311
:010C0B0022C6
:100AF700120BBE92012001227FCC120B777FBE1210
:100B07000B77120B25AC07120B25EFFEAD047C000B
:0D0B1700E42DFFEC3E8FF0120800A201B3A8
:010B240022AE
:100BDA00C104C103010900010A00011C00090BFE3E
:0B0BEA0006A0A001000000FF010800B1
:100A5400D2AF7F327E001209DB120BF67F807E2537
:100A6400120B4F2004033003FAC204C2037B007A42
:100A7400007921120AF7920030002FAE21E5227886
:100A840004CEA2E713CE13D8F8FFE522540F8F113A
:100A9400F512E4FFFE740B2FF8E6F5993099FD0F7B
:0F0AA400BF00010EEF64094E70EB120BF680B429
:1009DB0075260075251075240E752300E4FCFDAB00
:1009EB0026AA25A924A82312081FE47BE87A03F979
:1009FB00F81208AA8F268E258D248C23C3E4952606
:100A0B00F526E49525F52574019524F524E4952325
:100A1B00F523E526240CF526E43525F525E43524C8
:100A2B00F524E43523F523AF26AE25AD24FC780859
:100A3B0012093C8F0985260A5389F04389018509E0
:080A4B008C850A8AD2A9D28C25
:010A53002280
:100B4F0075985053890F438920AB07AA06E4F9F82B
:100B5F007F807E70FDFC120AB3EFF404F58D858D56
:080B6F008BC2ABD2ACD28E2286
:03000B00020B9D48
:040B9D00C0E0C0D024
:100BA10085098C850A8A0508C3E5089464748094D4
:080BB100804005750800D20424
:050BB900D0D0D0E032B5
:03002300020C0CC0
:100C0C00752700752800309802C298309902C29955
:010C1C0032A5
:10095B00020A54E493A3F8E493A34003F68001F254
:10096B0008DFF48029E493A3F85407240CC8C3339D
:10097B00C4540F4420C8834004F456800146F6DF6C
:10098B00E4800B0102040810204080900BDAE47E17
:10099B00019360BCA3FF543F30E509541FFEE49361
:1009AB00A360010ECF54C025E060A840B8E493A328
:1009BB00FAE493A3F8E493A3C8C582C8CAC583CA53
:1009CB00F0A3C8C582C8CAC583CADFE9DEE780BE0B
:010BF50000FF
:10080000BB010A89828A83F0E5F0A3F0225006F743
:0F08100009A7F01922BBFE06F3E5F009F3192240
:10081F00E88FF0A4CC8BF0A42CFCE98EF0A42CFC78
:10082F008AF0EDA42CFCEA8EF0A4CDA8F08BF0A4F6
:10083F002DCC3825F0FDE98FF0A42CCD35F0FCEB55
:10084F008EF0A4FEA9F0EB8FF0A4CFC5F02ECD391A
:0F085F00FEE43CFCEAA42DCE35F0FDE43CFC2287
:10086E0075F008758200EF2FFFEE33FECD33CDCC41
:10087E0033CCC58233C5829BED9AEC99E5829840C4
:10088E000CF582EE9BFEED9AFDEC99FC0FD5F0D6A1
:10089E00E4CEFBE4CDFAE4CCF9A88222B800C1B9CB
:1008AE000059BA002DEC8BF084CFCECDFCE5F0CB09
:1008BE00F97818EF2FFFEE33FEED33FDEC33FCEB42
:1008CE0033FB10D703994004EB99FB0FD8E5E4F9FD
:1008DE00FA227818EF2FFFEE33FEED33FDEC33FCEA
:1008EE00C933C910D7059BE99A4007EC9BFCE99ADE
:1008FE00F90FD8E0E4C9FAE4CCFB2275F010EF2F23
:10090E00FFEE33FEED33FDCC33CCC833C810D70722
:10091E009BEC9AE899400AED9BFDEC9AFCE899F85D
:0E092E000FD5F0DAE4CDFBE4CCFAE4C8F922F0
:100AB300C2D5E830E70FB2D5E4C39BFBE49AFAE46E
:100AC30099F9E498F8EC30E717B2D5120AE912085D
:100AD300AAE4C39BFBE49AFAE499F9E498F8800347
:100AE3001208AA30D50DE4C39FFFE49EFEE49DFDEA
:040AF300E49CFC2261
:10093C00E8600FECC313FCED13FDEE13FEEF13FF99
:03094C00D8F122BD
:00000001FF
